{
  "_format": "hh-sol-artifact-1",
  "contractName": "WavePortal",
  "sourceName": "contracts/WavePortal.sol",
  "abi": [
    {
      "inputs": [],
      "stateMutability": "payable",
      "type": "constructor"
    },
    {
      "anonymous": false,
      "inputs": [
        {
          "indexed": true,
          "internalType": "address",
          "name": "from",
          "type": "address"
        },
        {
          "indexed": false,
          "internalType": "uint256",
          "name": "timestamp",
          "type": "uint256"
        },
        {
          "indexed": false,
          "internalType": "string",
          "name": "message",
          "type": "string"
        }
      ],
      "name": "newWave",
      "type": "event"
    },
    {
      "inputs": [],
      "name": "getAll",
      "outputs": [
        {
          "components": [
            {
              "internalType": "address",
              "name": "waver",
              "type": "address"
            },
            {
              "internalType": "string",
              "name": "message",
              "type": "string"
            },
            {
              "internalType": "uint256",
              "name": "timestamp",
              "type": "uint256"
            }
          ],
          "internalType": "struct WavePortal.Wave[]",
          "name": "",
          "type": "tuple[]"
        }
      ],
      "stateMutability": "view",
      "type": "function"
    },
    {
      "inputs": [],
      "name": "getTotal",
      "outputs": [
        {
          "internalType": "uint256",
          "name": "",
          "type": "uint256"
        }
      ],
      "stateMutability": "view",
      "type": "function"
    },
    {
      "inputs": [
        {
          "internalType": "address",
          "name": "",
          "type": "address"
        }
      ],
      "name": "lastWaved",
      "outputs": [
        {
          "internalType": "uint256",
          "name": "",
          "type": "uint256"
        }
      ],
      "stateMutability": "view",
      "type": "function"
    },
    {
      "inputs": [
        {
          "internalType": "string",
          "name": "_message",
          "type": "string"
        }
      ],
      "name": "wave",
      "outputs": [],
      "stateMutability": "nonpayable",
      "type": "function"
    }
  ],
  "bytecode": "0x60806040526200004f6040518060400160405280601d81526020017f546869732069732061207465737420736d61727420636f6e74726163740000008152506200007760201b6200068a1760201c565b606444426200005f91906200017c565b6200006b919062000208565b60018190555062000308565b62000117816040516024016200008e9190620002e4565b6040516020818303038152906040527f41304fac000000000000000000000000000000000000000000000000000000007bffffffffffffffffffffffffffffffffffffffffffffffffffffffff19166020820180517bffffffffffffffffffffffffffffffffffffffffffffffffffffffff83818316178352505050506200011a60201b60201c565b50565b60008151905060006a636f6e736f6c652e6c6f679050602083016000808483855afa5050505050565b6000819050919050565b7f4e487b7100000000000000000000000000000000000000000000000000000000600052601160045260246000fd5b6000620001898262000143565b9150620001968362000143565b9250827fffffffffffffffffffffffffffffffffffffffffffffffffffffffffffffffff03821115620001ce57620001cd6200014d565b5b828201905092915050565b7f4e487b7100000000000000000000000000000000000000000000000000000000600052601260045260246000fd5b6000620002158262000143565b9150620002228362000143565b925082620002355762000234620001d9565b5b828206905092915050565b600081519050919050565b600082825260208201905092915050565b60005b838110156200027c5780820151818401526020810190506200025f565b838111156200028c576000848401525b50505050565b6000601f19601f8301169050919050565b6000620002b08262000240565b620002bc81856200024b565b9350620002ce8185602086016200025c565b620002d98162000292565b840191505092915050565b60006020820190508181036000830152620003008184620002a3565b905092915050565b6112ca80620003186000396000f3fe608060405234801561001057600080fd5b506004361061004c5760003560e01c8063449d46c01461005157806353ed51431461006d578063775a25e31461008b578063f4920770146100a9575b600080fd5b61006b60048036038101906100669190610b20565b6100d9565b005b6100756104d6565b6040516100829190610d5d565b60405180910390f35b610093610627565b6040516100a09190610d8e565b60405180910390f35b6100c360048036038101906100be9190610dd5565b610672565b6040516100d09190610d8e565b60405180910390f35b42610384600360003373ffffffffffffffffffffffffffffffffffffffff1673ffffffffffffffffffffffffffffffffffffffff168152602001908152602001600020546101279190610e31565b10610167576040517f08c379a000000000000000000000000000000000000000000000000000000000815260040161015e90610f0a565b60405180910390fd5b42600360003373ffffffffffffffffffffffffffffffffffffffff1673ffffffffffffffffffffffffffffffffffffffff1681526020019081526020016000208190555060016000808282546101bd9190610e31565b925050819055506102046040518060400160405280600981526020017f25732077617665642100000000000000000000000000000000000000000000008152503383610723565b600260405180606001604052803373ffffffffffffffffffffffffffffffffffffffff16815260200183815260200142815250908060018154018082558091505060019003906000526020600020906003020160009091909190915060008201518160000160006101000a81548173ffffffffffffffffffffffffffffffffffffffff021916908373ffffffffffffffffffffffffffffffffffffffff16021790555060208201518160010190805190602001906102c3929190610923565b50604082015181600201555050606460015442446102e19190610e31565b6102eb9190610e31565b6102f59190610f59565b60018190555061033c6040518060400160405280601681526020017f52616e646f6d20232067656e6572617465643a202564000000000000000000008152506001546107c2565b60326001541015610483576103866040518060400160405280600781526020017f257320776f6e21000000000000000000000000000000000000000000000000008152503361085e565b600065e35fa931a0009050478111156103d4576040517f08c379a00000000000000000000000000000000000000000000000000000000081526004016103cb90610ffc565b60405180910390fd5b60003373ffffffffffffffffffffffffffffffffffffffff16826040516103fa9061104d565b60006040518083038185875af1925050503d8060008114610437576040519150601f19603f3d011682016040523d82523d6000602084013e61043c565b606091505b5050905080610480576040517f08c379a0000000000000000000000000000000000000000000000000000000008152600401610477906110d4565b60405180910390fd5b50505b3373ffffffffffffffffffffffffffffffffffffffff167f827fc0b1433d32e3710239670a4c525416496a64d64f2374a5e4ea595c0738c642836040516104cb92919061112d565b60405180910390a250565b60606002805480602002602001604051908101604052809291908181526020016000905b8282101561061e57838290600052602060002090600302016040518060600160405290816000820160009054906101000a900473ffffffffffffffffffffffffffffffffffffffff1673ffffffffffffffffffffffffffffffffffffffff1673ffffffffffffffffffffffffffffffffffffffff1681526020016001820180546105839061118c565b80601f01602080910402602001604051908101604052809291908181526020018280546105af9061118c565b80156105fc5780601f106105d1576101008083540402835291602001916105fc565b820191906000526020600020905b8154815290600101906020018083116105df57829003601f168201915b50505050508152602001600282015481525050815260200190600101906104fa565b50505050905090565b600061066a6040518060400160405280601581526020017f25642070656f706c6520686176652077617665642100000000000000000000008152506000546107c2565b600054905090565b60036020528060005260406000206000915090505481565b6107208160405160240161069e91906111be565b6040516020818303038152906040527f41304fac000000000000000000000000000000000000000000000000000000007bffffffffffffffffffffffffffffffffffffffffffffffffffffffff19166020820180517bffffffffffffffffffffffffffffffffffffffffffffffffffffffff83818316178352505050506108fa565b50565b6107bd83838360405160240161073b939291906111ef565b6040516020818303038152906040527fe0e9ad4f000000000000000000000000000000000000000000000000000000007bffffffffffffffffffffffffffffffffffffffffffffffffffffffff19166020820180517bffffffffffffffffffffffffffffffffffffffffffffffffffffffff83818316178352505050506108fa565b505050565b61085a82826040516024016107d8929190611234565b6040516020818303038152906040527fb60e72cc000000000000000000000000000000000000000000000000000000007bffffffffffffffffffffffffffffffffffffffffffffffffffffffff19166020820180517bffffffffffffffffffffffffffffffffffffffffffffffffffffffff83818316178352505050506108fa565b5050565b6108f68282604051602401610874929190611264565b6040516020818303038152906040527f319af333000000000000000000000000000000000000000000000000000000007bffffffffffffffffffffffffffffffffffffffffffffffffffffffff19166020820180517bffffffffffffffffffffffffffffffffffffffffffffffffffffffff83818316178352505050506108fa565b5050565b60008151905060006a636f6e736f6c652e6c6f679050602083016000808483855afa5050505050565b82805461092f9061118c565b90600052602060002090601f0160209004810192826109515760008555610998565b82601f1061096a57805160ff1916838001178555610998565b82800160010185558215610998579182015b8281111561099757825182559160200191906001019061097c565b5b5090506109a591906109a9565b5090565b5b808211156109c25760008160009055506001016109aa565b5090565b6000604051905090565b600080fd5b600080fd5b600080fd5b600080fd5b6000601f19601f8301169050919050565b7f4e487b7100000000000000000000000000000000000000000000000000000000600052604160045260246000fd5b610a2d826109e4565b810181811067ffffffffffffffff82111715610a4c57610a4b6109f5565b5b80604052505050565b6000610a5f6109c6565b9050610a6b8282610a24565b919050565b600067ffffffffffffffff821115610a8b57610a8a6109f5565b5b610a94826109e4565b9050602081019050919050565b82818337600083830152505050565b6000610ac3610abe84610a70565b610a55565b905082815260208101848484011115610adf57610ade6109df565b5b610aea848285610aa1565b509392505050565b600082601f830112610b0757610b066109da565b5b8135610b17848260208601610ab0565b91505092915050565b600060208284031215610b3657610b356109d0565b5b600082013567ffffffffffffffff811115610b5457610b536109d5565b5b610b6084828501610af2565b91505092915050565b600081519050919050565b600082825260208201905092915050565b6000819050602082019050919050565b600073ffffffffffffffffffffffffffffffffffffffff82169050919050565b6000610bc082610b95565b9050919050565b610bd081610bb5565b82525050565b600081519050919050565b600082825260208201905092915050565b60005b83811015610c10578082015181840152602081019050610bf5565b83811115610c1f576000848401525b50505050565b6000610c3082610bd6565b610c3a8185610be1565b9350610c4a818560208601610bf2565b610c53816109e4565b840191505092915050565b6000819050919050565b610c7181610c5e565b82525050565b6000606083016000830151610c8f6000860182610bc7565b5060208301518482036020860152610ca78282610c25565b9150506040830151610cbc6040860182610c68565b508091505092915050565b6000610cd38383610c77565b905092915050565b6000602082019050919050565b6000610cf382610b69565b610cfd8185610b74565b935083602082028501610d0f85610b85565b8060005b85811015610d4b5784840389528151610d2c8582610cc7565b9450610d3783610cdb565b925060208a01995050600181019050610d13565b50829750879550505050505092915050565b60006020820190508181036000830152610d778184610ce8565b905092915050565b610d8881610c5e565b82525050565b6000602082019050610da36000830184610d7f565b92915050565b610db281610bb5565b8114610dbd57600080fd5b50565b600081359050610dcf81610da9565b92915050565b600060208284031215610deb57610dea6109d0565b5b6000610df984828501610dc0565b91505092915050565b7f4e487b7100000000000000000000000000000000000000000000000000000000600052601160045260246000fd5b6000610e3c82610c5e565b9150610e4783610c5e565b9250827fffffffffffffffffffffffffffffffffffffffffffffffffffffffffffffffff03821115610e7c57610e7b610e02565b5b828201905092915050565b600082825260208201905092915050565b7f57616974203135206d696e75746573206265666f726520776176696e6720616760008201527f61696e2100000000000000000000000000000000000000000000000000000000602082015250565b6000610ef4602483610e87565b9150610eff82610e98565b604082019050919050565b60006020820190508181036000830152610f2381610ee7565b9050919050565b7f4e487b7100000000000000000000000000000000000000000000000000000000600052601260045260246000fd5b6000610f6482610c5e565b9150610f6f83610c5e565b925082610f7f57610f7e610f2a565b5b828206905092915050565b7f547279696e6720746f207769746864726177206d6f7265207468616e2073746f60008201527f72656420696e20636f6e74726163742e00000000000000000000000000000000602082015250565b6000610fe6603083610e87565b9150610ff182610f8a565b604082019050919050565b6000602082019050818103600083015261101581610fd9565b9050919050565b600081905092915050565b50565b600061103760008361101c565b915061104282611027565b600082019050919050565b60006110588261102a565b9150819050919050565b7f4661696c656420746f207769746864726177206d6f6e65792066726f6d20636f60008201527f6e74726163742e00000000000000000000000000000000000000000000000000602082015250565b60006110be602783610e87565b91506110c982611062565b604082019050919050565b600060208201905081810360008301526110ed816110b1565b9050919050565b60006110ff82610bd6565b6111098185610e87565b9350611119818560208601610bf2565b611122816109e4565b840191505092915050565b60006040820190506111426000830185610d7f565b818103602083015261115481846110f4565b90509392505050565b7f4e487b7100000000000000000000000000000000000000000000000000000000600052602260045260246000fd5b600060028204905060018216806111a457607f821691505b602082108114156111b8576111b761115d565b5b50919050565b600060208201905081810360008301526111d881846110f4565b905092915050565b6111e981610bb5565b82525050565b6000606082019050818103600083015261120981866110f4565b905061121860208301856111e0565b818103604083015261122a81846110f4565b9050949350505050565b6000604082019050818103600083015261124e81856110f4565b905061125d6020830184610d7f565b9392505050565b6000604082019050818103600083015261127e81856110f4565b905061128d60208301846111e0565b939250505056fea26469706673582212200b3cb11dc2c68ac9221d077a5387fe619ee4e27dc5b31ae37d4e8d2e148cff3164736f6c63430008090033",
  "linkReferences": {},
  "deployedLinkReferences": {}
}