{
  "_format": "hh-sol-artifact-1",
  "contractName": "WavePortal",
  "sourceName": "contracts/WavePortal.sol",
  "abi": [
    {
      "inputs": [],
      "stateMutability": "nonpayable",
      "type": "constructor"
    },
    {
      "anonymous": false,
      "inputs": [
        {
          "indexed": true,
          "internalType": "address",
          "name": "from",
          "type": "address"
        },
        {
          "indexed": false,
          "internalType": "uint256",
          "name": "timestamp",
          "type": "uint256"
        },
        {
          "indexed": false,
          "internalType": "string",
          "name": "message",
          "type": "string"
        }
      ],
      "name": "newWave",
      "type": "event"
    },
    {
      "inputs": [],
      "name": "getAll",
      "outputs": [
        {
          "components": [
            {
              "internalType": "address",
              "name": "waver",
              "type": "address"
            },
            {
              "internalType": "string",
              "name": "message",
              "type": "string"
            },
            {
              "internalType": "uint256",
              "name": "timestamp",
              "type": "uint256"
            }
          ],
          "internalType": "struct WavePortal.Wave[]",
          "name": "",
          "type": "tuple[]"
        }
      ],
      "stateMutability": "view",
      "type": "function"
    },
    {
      "inputs": [],
      "name": "getTotal",
      "outputs": [
        {
          "internalType": "uint256",
          "name": "",
          "type": "uint256"
        }
      ],
      "stateMutability": "view",
      "type": "function"
    },
    {
      "inputs": [
        {
          "internalType": "string",
          "name": "_message",
          "type": "string"
        }
      ],
      "name": "wave",
      "outputs": [],
      "stateMutability": "nonpayable",
      "type": "function"
    }
  ],
  "bytecode": "0x60806040523480156200001157600080fd5b506200005d6040518060400160405280601d81526020017f546869732069732061207465737420736d61727420636f6e74726163740000008152506200006360201b620003b21760201c565b620001f7565b62000103816040516024016200007a9190620001d3565b6040516020818303038152906040527f41304fac000000000000000000000000000000000000000000000000000000007bffffffffffffffffffffffffffffffffffffffffffffffffffffffff19166020820180517bffffffffffffffffffffffffffffffffffffffffffffffffffffffff83818316178352505050506200010660201b60201c565b50565b60008151905060006a636f6e736f6c652e6c6f679050602083016000808483855afa5050505050565b600081519050919050565b600082825260208201905092915050565b60005b838110156200016b5780820151818401526020810190506200014e565b838111156200017b576000848401525b50505050565b6000601f19601f8301169050919050565b60006200019f826200012f565b620001ab81856200013a565b9350620001bd8185602086016200014b565b620001c88162000181565b840191505092915050565b60006020820190508181036000830152620001ef818462000192565b905092915050565b610c7180620002076000396000f3fe608060405234801561001057600080fd5b50600436106100415760003560e01c8063449d46c01461004657806353ed514314610062578063775a25e314610080575b600080fd5b610060600480360381019061005b91906107ac565b61009e565b005b61006a610216565b60405161007791906109e9565b60405180910390f35b610088610367565b6040516100959190610a1a565b60405180910390f35b60016000808282546100b09190610a64565b925050819055506100f76040518060400160405280600981526020017f2573207761766564210000000000000000000000000000000000000000000000815250338361044b565b600160405180606001604052803373ffffffffffffffffffffffffffffffffffffffff16815260200183815260200142815250908060018154018082558091505060019003906000526020600020906003020160009091909190915060008201518160000160006101000a81548173ffffffffffffffffffffffffffffffffffffffff021916908373ffffffffffffffffffffffffffffffffffffffff16021790555060208201518160010190805190602001906101b69291906105af565b506040820151816002015550503373ffffffffffffffffffffffffffffffffffffffff167f827fc0b1433d32e3710239670a4c525416496a64d64f2374a5e4ea595c0738c6428360405161020b929190610b04565b60405180910390a250565b60606001805480602002602001604051908101604052809291908181526020016000905b8282101561035e57838290600052602060002090600302016040518060600160405290816000820160009054906101000a900473ffffffffffffffffffffffffffffffffffffffff1673ffffffffffffffffffffffffffffffffffffffff1673ffffffffffffffffffffffffffffffffffffffff1681526020016001820180546102c390610b63565b80601f01602080910402602001604051908101604052809291908181526020018280546102ef90610b63565b801561033c5780601f106103115761010080835404028352916020019161033c565b820191906000526020600020905b81548152906001019060200180831161031f57829003601f168201915b505050505081526020016002820154815250508152602001906001019061023a565b50505050905090565b60006103aa6040518060400160405280601581526020017f25642070656f706c6520686176652077617665642100000000000000000000008152506000546104ea565b600054905090565b610448816040516024016103c69190610b95565b6040516020818303038152906040527f41304fac000000000000000000000000000000000000000000000000000000007bffffffffffffffffffffffffffffffffffffffffffffffffffffffff19166020820180517bffffffffffffffffffffffffffffffffffffffffffffffffffffffff8381831617835250505050610586565b50565b6104e583838360405160240161046393929190610bc6565b6040516020818303038152906040527fe0e9ad4f000000000000000000000000000000000000000000000000000000007bffffffffffffffffffffffffffffffffffffffffffffffffffffffff19166020820180517bffffffffffffffffffffffffffffffffffffffffffffffffffffffff8381831617835250505050610586565b505050565b6105828282604051602401610500929190610c0b565b6040516020818303038152906040527fb60e72cc000000000000000000000000000000000000000000000000000000007bffffffffffffffffffffffffffffffffffffffffffffffffffffffff19166020820180517bffffffffffffffffffffffffffffffffffffffffffffffffffffffff8381831617835250505050610586565b5050565b60008151905060006a636f6e736f6c652e6c6f679050602083016000808483855afa5050505050565b8280546105bb90610b63565b90600052602060002090601f0160209004810192826105dd5760008555610624565b82601f106105f657805160ff1916838001178555610624565b82800160010185558215610624579182015b82811115610623578251825591602001919060010190610608565b5b5090506106319190610635565b5090565b5b8082111561064e576000816000905550600101610636565b5090565b6000604051905090565b600080fd5b600080fd5b600080fd5b600080fd5b6000601f19601f8301169050919050565b7f4e487b7100000000000000000000000000000000000000000000000000000000600052604160045260246000fd5b6106b982610670565b810181811067ffffffffffffffff821117156106d8576106d7610681565b5b80604052505050565b60006106eb610652565b90506106f782826106b0565b919050565b600067ffffffffffffffff82111561071757610716610681565b5b61072082610670565b9050602081019050919050565b82818337600083830152505050565b600061074f61074a846106fc565b6106e1565b90508281526020810184848401111561076b5761076a61066b565b5b61077684828561072d565b509392505050565b600082601f83011261079357610792610666565b5b81356107a384826020860161073c565b91505092915050565b6000602082840312156107c2576107c161065c565b5b600082013567ffffffffffffffff8111156107e0576107df610661565b5b6107ec8482850161077e565b91505092915050565b600081519050919050565b600082825260208201905092915050565b6000819050602082019050919050565b600073ffffffffffffffffffffffffffffffffffffffff82169050919050565b600061084c82610821565b9050919050565b61085c81610841565b82525050565b600081519050919050565b600082825260208201905092915050565b60005b8381101561089c578082015181840152602081019050610881565b838111156108ab576000848401525b50505050565b60006108bc82610862565b6108c6818561086d565b93506108d681856020860161087e565b6108df81610670565b840191505092915050565b6000819050919050565b6108fd816108ea565b82525050565b600060608301600083015161091b6000860182610853565b506020830151848203602086015261093382826108b1565b915050604083015161094860408601826108f4565b508091505092915050565b600061095f8383610903565b905092915050565b6000602082019050919050565b600061097f826107f5565b6109898185610800565b93508360208202850161099b85610811565b8060005b858110156109d757848403895281516109b88582610953565b94506109c383610967565b925060208a0199505060018101905061099f565b50829750879550505050505092915050565b60006020820190508181036000830152610a038184610974565b905092915050565b610a14816108ea565b82525050565b6000602082019050610a2f6000830184610a0b565b92915050565b7f4e487b7100000000000000000000000000000000000000000000000000000000600052601160045260246000fd5b6000610a6f826108ea565b9150610a7a836108ea565b9250827fffffffffffffffffffffffffffffffffffffffffffffffffffffffffffffffff03821115610aaf57610aae610a35565b5b828201905092915050565b600082825260208201905092915050565b6000610ad682610862565b610ae08185610aba565b9350610af081856020860161087e565b610af981610670565b840191505092915050565b6000604082019050610b196000830185610a0b565b8181036020830152610b2b8184610acb565b90509392505050565b7f4e487b7100000000000000000000000000000000000000000000000000000000600052602260045260246000fd5b60006002820490506001821680610b7b57607f821691505b60208210811415610b8f57610b8e610b34565b5b50919050565b60006020820190508181036000830152610baf8184610acb565b905092915050565b610bc081610841565b82525050565b60006060820190508181036000830152610be08186610acb565b9050610bef6020830185610bb7565b8181036040830152610c018184610acb565b9050949350505050565b60006040820190508181036000830152610c258185610acb565b9050610c346020830184610a0b565b939250505056fea2646970667358221220c4d4f5c77ae9f914dc68af17298cdad2c49b6ed833d562c2420a61a5339b173764736f6c63430008090033",
  "linkReferences": {},
  "deployedLinkReferences": {}
}