{
  "_format": "hh-sol-artifact-1",
  "contractName": "WavePortal",
  "sourceName": "contracts/WavePortal.sol",
  "abi": [
    {
      "inputs": [],
      "stateMutability": "payable",
      "type": "constructor"
    },
    {
      "anonymous": false,
      "inputs": [
        {
          "indexed": true,
          "internalType": "address",
          "name": "from",
          "type": "address"
        },
        {
          "indexed": false,
          "internalType": "uint256",
          "name": "timestamp",
          "type": "uint256"
        },
        {
          "indexed": false,
          "internalType": "string",
          "name": "message",
          "type": "string"
        }
      ],
      "name": "newWave",
      "type": "event"
    },
    {
      "inputs": [],
      "name": "getAll",
      "outputs": [
        {
          "components": [
            {
              "internalType": "address",
              "name": "waver",
              "type": "address"
            },
            {
              "internalType": "string",
              "name": "message",
              "type": "string"
            },
            {
              "internalType": "uint256",
              "name": "timestamp",
              "type": "uint256"
            }
          ],
          "internalType": "struct WavePortal.Wave[]",
          "name": "",
          "type": "tuple[]"
        }
      ],
      "stateMutability": "view",
      "type": "function"
    },
    {
      "inputs": [],
      "name": "getTotal",
      "outputs": [
        {
          "internalType": "uint256",
          "name": "",
          "type": "uint256"
        }
      ],
      "stateMutability": "view",
      "type": "function"
    },
    {
      "inputs": [
        {
          "internalType": "string",
          "name": "_message",
          "type": "string"
        }
      ],
      "name": "wave",
      "outputs": [],
      "stateMutability": "nonpayable",
      "type": "function"
    }
  ],
  "bytecode": "0x60806040526200004f6040518060400160405280601d81526020017f546869732069732061207465737420736d61727420636f6e74726163740000008152506200005560201b620004af1760201c565b620001e9565b620000f5816040516024016200006c9190620001c5565b6040516020818303038152906040527f41304fac000000000000000000000000000000000000000000000000000000007bffffffffffffffffffffffffffffffffffffffffffffffffffffffff19166020820180517bffffffffffffffffffffffffffffffffffffffffffffffffffffffff8381831617835250505050620000f860201b60201c565b50565b60008151905060006a636f6e736f6c652e6c6f679050602083016000808483855afa5050505050565b600081519050919050565b600082825260208201905092915050565b60005b838110156200015d57808201518184015260208101905062000140565b838111156200016d576000848401525b50505050565b6000601f19601f8301169050919050565b6000620001918262000121565b6200019d81856200012c565b9350620001af8185602086016200013d565b620001ba8162000173565b840191505092915050565b60006020820190508181036000830152620001e1818462000184565b905092915050565b610ed880620001f96000396000f3fe608060405234801561001057600080fd5b50600436106100415760003560e01c8063449d46c01461004657806353ed514314610062578063775a25e314610080575b600080fd5b610060600480360381019061005b91906108a9565b61009e565b005b61006a610313565b6040516100779190610ae6565b60405180910390f35b610088610464565b6040516100959190610b17565b60405180910390f35b60016000808282546100b09190610b61565b925050819055506100f76040518060400160405280600981526020017f25732077617665642100000000000000000000000000000000000000000000008152503383610548565b600160405180606001604052803373ffffffffffffffffffffffffffffffffffffffff16815260200183815260200142815250908060018154018082558091505060019003906000526020600020906003020160009091909190915060008201518160000160006101000a81548173ffffffffffffffffffffffffffffffffffffffff021916908373ffffffffffffffffffffffffffffffffffffffff16021790555060208201518160010190805190602001906101b69291906106ac565b506040820151816002015550503373ffffffffffffffffffffffffffffffffffffffff167f827fc0b1433d32e3710239670a4c525416496a64d64f2374a5e4ea595c0738c6428360405161020b929190610c01565b60405180910390a260006601c6bf52634000905047811115610262576040517f08c379a000000000000000000000000000000000000000000000000000000000815260040161025990610ca3565b60405180910390fd5b60003373ffffffffffffffffffffffffffffffffffffffff168260405161028890610cf4565b60006040518083038185875af1925050503d80600081146102c5576040519150601f19603f3d011682016040523d82523d6000602084013e6102ca565b606091505b505090508061030e576040517f08c379a000000000000000000000000000000000000000000000000000000000815260040161030590610d7b565b60405180910390fd5b505050565b60606001805480602002602001604051908101604052809291908181526020016000905b8282101561045b57838290600052602060002090600302016040518060600160405290816000820160009054906101000a900473ffffffffffffffffffffffffffffffffffffffff1673ffffffffffffffffffffffffffffffffffffffff1673ffffffffffffffffffffffffffffffffffffffff1681526020016001820180546103c090610dca565b80601f01602080910402602001604051908101604052809291908181526020018280546103ec90610dca565b80156104395780601f1061040e57610100808354040283529160200191610439565b820191906000526020600020905b81548152906001019060200180831161041c57829003601f168201915b5050505050815260200160028201548152505081526020019060010190610337565b50505050905090565b60006104a76040518060400160405280601581526020017f25642070656f706c6520686176652077617665642100000000000000000000008152506000546105e7565b600054905090565b610545816040516024016104c39190610dfc565b6040516020818303038152906040527f41304fac000000000000000000000000000000000000000000000000000000007bffffffffffffffffffffffffffffffffffffffffffffffffffffffff19166020820180517bffffffffffffffffffffffffffffffffffffffffffffffffffffffff8381831617835250505050610683565b50565b6105e283838360405160240161056093929190610e2d565b6040516020818303038152906040527fe0e9ad4f000000000000000000000000000000000000000000000000000000007bffffffffffffffffffffffffffffffffffffffffffffffffffffffff19166020820180517bffffffffffffffffffffffffffffffffffffffffffffffffffffffff8381831617835250505050610683565b505050565b61067f82826040516024016105fd929190610e72565b6040516020818303038152906040527fb60e72cc000000000000000000000000000000000000000000000000000000007bffffffffffffffffffffffffffffffffffffffffffffffffffffffff19166020820180517bffffffffffffffffffffffffffffffffffffffffffffffffffffffff8381831617835250505050610683565b5050565b60008151905060006a636f6e736f6c652e6c6f679050602083016000808483855afa5050505050565b8280546106b890610dca565b90600052602060002090601f0160209004810192826106da5760008555610721565b82601f106106f357805160ff1916838001178555610721565b82800160010185558215610721579182015b82811115610720578251825591602001919060010190610705565b5b50905061072e9190610732565b5090565b5b8082111561074b576000816000905550600101610733565b5090565b6000604051905090565b600080fd5b600080fd5b600080fd5b600080fd5b6000601f19601f8301169050919050565b7f4e487b7100000000000000000000000000000000000000000000000000000000600052604160045260246000fd5b6107b68261076d565b810181811067ffffffffffffffff821117156107d5576107d461077e565b5b80604052505050565b60006107e861074f565b90506107f482826107ad565b919050565b600067ffffffffffffffff8211156108145761081361077e565b5b61081d8261076d565b9050602081019050919050565b82818337600083830152505050565b600061084c610847846107f9565b6107de565b90508281526020810184848401111561086857610867610768565b5b61087384828561082a565b509392505050565b600082601f8301126108905761088f610763565b5b81356108a0848260208601610839565b91505092915050565b6000602082840312156108bf576108be610759565b5b600082013567ffffffffffffffff8111156108dd576108dc61075e565b5b6108e98482850161087b565b91505092915050565b600081519050919050565b600082825260208201905092915050565b6000819050602082019050919050565b600073ffffffffffffffffffffffffffffffffffffffff82169050919050565b60006109498261091e565b9050919050565b6109598161093e565b82525050565b600081519050919050565b600082825260208201905092915050565b60005b8381101561099957808201518184015260208101905061097e565b838111156109a8576000848401525b50505050565b60006109b98261095f565b6109c3818561096a565b93506109d381856020860161097b565b6109dc8161076d565b840191505092915050565b6000819050919050565b6109fa816109e7565b82525050565b6000606083016000830151610a186000860182610950565b5060208301518482036020860152610a3082826109ae565b9150506040830151610a4560408601826109f1565b508091505092915050565b6000610a5c8383610a00565b905092915050565b6000602082019050919050565b6000610a7c826108f2565b610a8681856108fd565b935083602082028501610a988561090e565b8060005b85811015610ad45784840389528151610ab58582610a50565b9450610ac083610a64565b925060208a01995050600181019050610a9c565b50829750879550505050505092915050565b60006020820190508181036000830152610b008184610a71565b905092915050565b610b11816109e7565b82525050565b6000602082019050610b2c6000830184610b08565b92915050565b7f4e487b7100000000000000000000000000000000000000000000000000000000600052601160045260246000fd5b6000610b6c826109e7565b9150610b77836109e7565b9250827fffffffffffffffffffffffffffffffffffffffffffffffffffffffffffffffff03821115610bac57610bab610b32565b5b828201905092915050565b600082825260208201905092915050565b6000610bd38261095f565b610bdd8185610bb7565b9350610bed81856020860161097b565b610bf68161076d565b840191505092915050565b6000604082019050610c166000830185610b08565b8181036020830152610c288184610bc8565b90509392505050565b7f547279696e6720746f207769746864726177206d6f7265207468616e2073746f60008201527f72656420696e20636f6e74726163742e00000000000000000000000000000000602082015250565b6000610c8d603083610bb7565b9150610c9882610c31565b604082019050919050565b60006020820190508181036000830152610cbc81610c80565b9050919050565b600081905092915050565b50565b6000610cde600083610cc3565b9150610ce982610cce565b600082019050919050565b6000610cff82610cd1565b9150819050919050565b7f4661696c656420746f207769746864726177206d6f6e65792066726f6d20636f60008201527f6e74726163742e00000000000000000000000000000000000000000000000000602082015250565b6000610d65602783610bb7565b9150610d7082610d09565b604082019050919050565b60006020820190508181036000830152610d9481610d58565b9050919050565b7f4e487b7100000000000000000000000000000000000000000000000000000000600052602260045260246000fd5b60006002820490506001821680610de257607f821691505b60208210811415610df657610df5610d9b565b5b50919050565b60006020820190508181036000830152610e168184610bc8565b905092915050565b610e278161093e565b82525050565b60006060820190508181036000830152610e478186610bc8565b9050610e566020830185610e1e565b8181036040830152610e688184610bc8565b9050949350505050565b60006040820190508181036000830152610e8c8185610bc8565b9050610e9b6020830184610b08565b939250505056fea26469706673582212208c95b8acac4c63c32148942bb7ae8a3c7d5689694fcd22b374909edad618822c64736f6c63430008090033",
  "linkReferences": {},
  "deployedLinkReferences": {}
}